{"abi":[{"type":"constructor","inputs":[{"name":"factory","type":"address","internalType":"address"},{"name":"weth","type":"address","internalType":"address"}],"stateMutability":"nonpayable"},{"type":"receive","stateMutability":"payable"},{"type":"function","name":"FACTORY","inputs":[],"outputs":[{"name":"","type":"address","internalType":"address"}],"stateMutability":"view"},{"type":"function","name":"WETH","inputs":[],"outputs":[{"name":"","type":"address","internalType":"address"}],"stateMutability":"view"},{"type":"function","name":"addLiquidity","inputs":[{"name":"token","type":"address","internalType":"address"},{"name":"tokenDesired","type":"uint256","internalType":"uint256"},{"name":"wethDesired","type":"uint256","internalType":"uint256"},{"name":"tokenMin","type":"uint256","internalType":"uint256"},{"name":"wethMin","type":"uint256","internalType":"uint256"},{"name":"to","type":"address","internalType":"address"},{"name":"deadline","type":"uint256","internalType":"uint256"},{"name":"initParams","type":"tuple","internalType":"struct GoatTypes.InitParams","components":[{"name":"virtualEth","type":"uint112","internalType":"uint112"},{"name":"bootstrapEth","type":"uint112","internalType":"uint112"},{"name":"initialEth","type":"uint112","internalType":"uint112"},{"name":"initialTokenMatch","type":"uint112","internalType":"uint112"}]}],"outputs":[{"name":"","type":"uint256","internalType":"uint256"},{"name":"","type":"uint256","internalType":"uint256"},{"name":"","type":"uint256","internalType":"uint256"}],"stateMutability":"nonpayable"},{"type":"function","name":"addLiquidityETH","inputs":[{"name":"token","type":"address","internalType":"address"},{"name":"tokenDesired","type":"uint256","internalType":"uint256"},{"name":"tokenMin","type":"uint256","internalType":"uint256"},{"name":"ethMin","type":"uint256","internalType":"uint256"},{"name":"to","type":"address","internalType":"address"},{"name":"deadline","type":"uint256","internalType":"uint256"},{"name":"initParams","type":"tuple","internalType":"struct GoatTypes.InitParams","components":[{"name":"virtualEth","type":"uint112","internalType":"uint112"},{"name":"bootstrapEth","type":"uint112","internalType":"uint112"},{"name":"initialEth","type":"uint112","internalType":"uint112"},{"name":"initialTokenMatch","type":"uint112","internalType":"uint112"}]}],"outputs":[{"name":"","type":"uint256","internalType":"uint256"},{"name":"","type":"uint256","internalType":"uint256"},{"name":"","type":"uint256","internalType":"uint256"}],"stateMutability":"payable"},{"type":"function","name":"getActualBootstrapTokenAmount","inputs":[{"name":"virtualEth","type":"uint256","internalType":"uint256"},{"name":"bootstrapEth","type":"uint256","internalType":"uint256"},{"name":"initialEth","type":"uint256","internalType":"uint256"},{"name":"initialTokenMatch","type":"uint256","internalType":"uint256"}],"outputs":[{"name":"actualTokenAmount","type":"uint256","internalType":"uint256"}],"stateMutability":"pure"},{"type":"function","name":"removeLiquidity","inputs":[{"name":"token","type":"address","internalType":"address"},{"name":"liquidity","type":"uint256","internalType":"uint256"},{"name":"tokenMin","type":"uint256","internalType":"uint256"},{"name":"wethMin","type":"uint256","internalType":"uint256"},{"name":"to","type":"address","internalType":"address"},{"name":"deadline","type":"uint256","internalType":"uint256"}],"outputs":[{"name":"amountWeth","type":"uint256","internalType":"uint256"},{"name":"amountToken","type":"uint256","internalType":"uint256"}],"stateMutability":"nonpayable"},{"type":"function","name":"removeLiquidityETH","inputs":[{"name":"token","type":"address","internalType":"address"},{"name":"liquidity","type":"uint256","internalType":"uint256"},{"name":"tokenMin","type":"uint256","internalType":"uint256"},{"name":"ethMin","type":"uint256","internalType":"uint256"},{"name":"to","type":"address","internalType":"address"},{"name":"deadline","type":"uint256","internalType":"uint256"}],"outputs":[{"name":"amountWeth","type":"uint256","internalType":"uint256"},{"name":"amountToken","type":"uint256","internalType":"uint256"}],"stateMutability":"nonpayable"},{"type":"function","name":"swapExactETHForTokens","inputs":[{"name":"amountOutMin","type":"uint256","internalType":"uint256"},{"name":"token","type":"address","internalType":"address"},{"name":"to","type":"address","internalType":"address"},{"name":"deadline","type":"uint256","internalType":"uint256"}],"outputs":[{"name":"amountTokenOut","type":"uint256","internalType":"uint256"}],"stateMutability":"payable"},{"type":"function","name":"swapExactTokensForWeth","inputs":[{"name":"amountIn","type":"uint256","internalType":"uint256"},{"name":"amountOutMin","type":"uint256","internalType":"uint256"},{"name":"token","type":"address","internalType":"address"},{"name":"to","type":"address","internalType":"address"},{"name":"deadline","type":"uint256","internalType":"uint256"}],"outputs":[{"name":"amountWethOut","type":"uint256","internalType":"uint256"}],"stateMutability":"nonpayable"},{"type":"function","name":"swapWethForExactTokens","inputs":[{"name":"amountIn","type":"uint256","internalType":"uint256"},{"name":"amountOutMin","type":"uint256","internalType":"uint256"},{"name":"token","type":"address","internalType":"address"},{"name":"to","type":"address","internalType":"address"},{"name":"deadline","type":"uint256","internalType":"uint256"}],"outputs":[{"name":"amountTokenOut","type":"uint256","internalType":"uint256"}],"stateMutability":"nonpayable"},{"type":"function","name":"withdrawFees","inputs":[{"name":"token","type":"address","internalType":"address"},{"name":"to","type":"address","internalType":"address"}],"outputs":[],"stateMutability":"nonpayable"},{"type":"error","name":"EthTransferFailed","inputs":[]},{"type":"error","name":"Expired","inputs":[]},{"type":"error","name":"GoatPoolDoesNotExist","inputs":[]},{"type":"error","name":"InsufficientAmountOut","inputs":[]},{"type":"error","name":"InsufficientInputAmount","inputs":[]},{"type":"error","name":"InsufficientLiquidity","inputs":[]},{"type":"error","name":"InsufficientTokenAmount","inputs":[]},{"type":"error","name":"InsufficientWethAmount","inputs":[]},{"type":"error","name":"InvalidEthAmount","inputs":[]},{"type":"error","name":"WrongToken","inputs":[]},{"type":"error","name":"ZeroAddress","inputs":[]}],"bytecode":{"object":"0x60c06040523480156200001157600080fd5b506040516200281e3803806200281e83398101604081905262000034916200006e565b60016000556001600160a01b039182166080521660a052620000a6565b80516001600160a01b03811681146200006957600080fd5b919050565b600080604083850312156200008257600080fd5b6200008d8362000051565b91506200009d6020840162000051565b90509250929050565b60805160a0516126e36200013b6000396000818160b00152818161026b0152818161030f0152818161043f0152818161054d015281816105da01528181610b2d01528181610bab01528181610cdd015261152e01526000818161015e0152818161080501528181610e3f01528181610ff6015281816112310152818161168201528181611b410152611c1401526126e36000f3fe6080604052600436106100a05760003560e01c8063451776561161006457806345177656146101e6578063959d7097146101f957806396c92f5e146102195780639ab9c5af14610239578063ad5c464814610259578063f25552781461028d57600080fd5b806302751cec146100e45780630b92e95d1461011e5780632dd310001461014c5780633397359b146101985780633c302c1a146101c657600080fd5b366100df57336001600160a01b037f000000000000000000000000000000000000000000000000000000000000000016146100dd576100dd61214a565b005b600080fd5b3480156100f057600080fd5b506101046100ff366004612178565b6102ad565b604080519283526020830191909152015b60405180910390f35b34801561012a57600080fd5b5061013e6101393660046121d6565b6103f4565b604051908152602001610115565b34801561015857600080fd5b506101807f000000000000000000000000000000000000000000000000000000000000000081565b6040516001600160a01b039091168152602001610115565b6101ab6101a63660046122d4565b6104e5565b60408051938452602084019290925290820152606001610115565b3480156101d257600080fd5b5061013e6101e13660046121d6565b610764565b61013e6101f4366004612344565b610aea565b34801561020557600080fd5b506101ab61021436600461238c565b610c53565b34801561022557600080fd5b50610104610234366004612178565b610df0565b34801561024557600080fd5b5061013e610254366004612405565b610f8c565b34801561026557600080fd5b506101807f000000000000000000000000000000000000000000000000000000000000000081565b34801561029957600080fd5b506100dd6102a8366004612437565b610fa5565b60008082804211156102d257604051630407b05b60e31b815260040160405180910390fd5b6102e0898989893089610df0565b90935091506102f96001600160a01b038a1686846110f6565b604051632e1a7d4d60e01b8152600481018490527f00000000000000000000000000000000000000000000000000000000000000006001600160a01b031690632e1a7d4d90602401600060405180830381600087803b15801561035b57600080fd5b505af115801561036f573d6000803e3d6000fd5b505050506000856001600160a01b03168460405160006040518083038185875af1925050503d80600081146103c0576040519150601f19603f3d011682016040523d82523d6000602084013e6103c5565b606091505b50509050806103e757604051630db2c7f160e31b815260040160405180910390fd5b5050965096945050505050565b6000818042111561041857604051630407b05b60e31b815260040160405180910390fd5b61042061115e565b600061042d8888886111bc565b90935090506104676001600160a01b037f00000000000000000000000000000000000000000000000000000000000000001633838b6114e6565b6040516336cd320560e11b815260048101849052600060248201526001600160a01b038681166044830152821690636d9a640a90606401600060405180830381600087803b1580156104b857600080fd5b505af11580156104cc573d6000803e3d6000fd5b50505050506104db6001600055565b5095945050505050565b6000806000848042111561050c57604051630407b05b60e31b815260040160405180910390fd5b600061051e8c8c348d8d8b6001611524565b60208101516040820151919250610541916001600160a01b038f169133916114e6565b608081015115610601577f00000000000000000000000000000000000000000000000000000000000000006001600160a01b031663d0e30db082608001516040518263ffffffff1660e01b81526004016000604051808303818588803b1580156105aa57600080fd5b505af11580156105be573d6000803e3d6000fd5b5050506020830151608084015161060193506001600160a01b037f00000000000000000000000000000000000000000000000000000000000000001692506110f6565b60208101516040516335313c2160e11b81526001600160a01b038a8116600483015290911690636a627842906024016020604051808303816000875af115801561064f573d6000803e3d6000fd5b505050506040513d601f19601f820116820180604052508101906106739190612470565b60a082015260808101513411156106fd5760808101516000903390610698903461249f565b604051600081818185875af1925050503d80600081146106d4576040519150601f19603f3d011682016040523d82523d6000602084013e6106d9565b606091505b50509050806106fb57604051630db2c7f160e31b815260040160405180910390fd5b505b8051156107415785604001516001600160701b031686602001516001600160701b03161461072c578551610732565b85604001515b6001600160701b031660808201525b6060810151608082015160a090920151909d919c509a5098505050505050505050565b6000818042111561078857604051630407b05b60e31b815260040160405180910390fd5b61079061115e565b866000036107b15760405163098fb56160e01b815260040160405180910390fd5b6040805160c081018252600080825260208201819052918101829052606081018290526080810182905260a081019190915260405163bbe4f6db60e01b81526001600160a01b0387811660048301526000917f00000000000000000000000000000000000000000000000000000000000000009091169063bbe4f6db90602401602060405180830381865afa15801561084e573d6000803e3d6000fd5b505050506040513d601f19601f8201168201806040525081019061087291906124b2565b90506001600160a01b03811661089b57604051634a7e3c5760e01b815260040160405180910390fd5b63ffffffff8016816001600160a01b031663b50754376040518163ffffffff1660e01b8152600401602060405180830381865afa1580156108e0573d6000803e3d6000fd5b505050506040513d601f19601f8201168201806040525081019061090491906124d6565b63ffffffff161461099d57600080826001600160a01b03166343c676716040518163ffffffff1660e01b81526004016040805180830381865afa15801561094f573d6000803e3d6000fd5b505050506040513d601f19601f8201168201806040525081019061097391906124fc565b915091506109948b836001600160701b0316836001600160701b0316611708565b95505050610a3f565b806001600160a01b0316632262810b6040518163ffffffff1660e01b815260040160c060405180830381865afa1580156109db573d6000803e3d6000fd5b505050506040513d601f19601f820116820180604052508101906109ff919061252b565b60a088018190526001600160701b03938416604089018190529484166020890181905295909316808852610a3c958f9591949093509091506117bb565b93505b87841015610a6057604051637294b85560e11b815260040160405180910390fd5b610a756001600160a01b03881633838c6114e6565b6040516336cd320560e11b815260006004820152602481018590526001600160a01b038781166044830152821690636d9a640a90606401600060405180830381600087803b158015610ac657600080fd5b505af1158015610ada573d6000803e3d6000fd5b5050505050506104db6001600055565b60008180421115610b0e57604051630407b05b60e31b815260040160405180910390fd5b610b1661115e565b6000610b233488886111bc565b80925081945050507f00000000000000000000000000000000000000000000000000000000000000006001600160a01b031663d0e30db0346040518263ffffffff1660e01b81526004016000604051808303818588803b158015610b8657600080fd5b505af1158015610b9a573d6000803e3d6000fd5b50610bd69350506001600160a01b037f0000000000000000000000000000000000000000000000000000000000000000169150839050346110f6565b6040516336cd320560e11b815260048101849052600060248201526001600160a01b038681166044830152821690636d9a640a90606401600060405180830381600087803b158015610c2757600080fd5b505af1158015610c3b573d6000803e3d6000fd5b5050505050610c4a6001600055565b50949350505050565b6000806000610c6061115e565b8480421115610c8257604051630407b05b60e31b815260040160405180910390fd5b6000610c948d8d8d8d8d8b6000611524565b6020810151604082015160c0830151929350610cbb926001600160a01b03169133916114e6565b608081015115610d065760208101516080820151610d06916001600160a01b037f000000000000000000000000000000000000000000000000000000000000000016913391906114e6565b60208101516040516335313c2160e11b81526001600160a01b038a8116600483015290911690636a627842906024016020604051808303816000875af1158015610d54573d6000803e3d6000fd5b505050506040513d601f19601f82011682018060405250810190610d789190612470565b60a0820152805115610dc15785604001516001600160701b031686602001516001600160701b031614610dac578551610db2565b85604001515b6001600160701b031660808201525b806060015181608001518260a001519450945094505050610de26001600055565b985098509895505050505050565b600080610dfb61115e565b8280421115610e1d57604051630407b05b60e31b815260040160405180910390fd5b60405163bbe4f6db60e01b81526001600160a01b038a811660048301526000917f00000000000000000000000000000000000000000000000000000000000000009091169063bbe4f6db90602401602060405180830381865afa158015610e88573d6000803e3d6000fd5b505050506040513d601f19601f82011682018060405250810190610eac91906124b2565b9050610ec36001600160a01b03821633838c6114e6565b60405163226bf2d160e21b81526001600160a01b0387811660048301528216906389afcb449060240160408051808303816000875af1158015610f0a573d6000803e3d6000fd5b505050506040513d601f19601f82011682018060405250810190610f2e91906125a8565b909450925086841015610f5457604051635ebb7b9d60e01b815260040160405180910390fd5b87831015610f7557604051631762402160e11b815260040160405180910390fd5b5050610f816001600055565b965096945050505050565b6000610f9a85858585611884565b90505b949350505050565b610fad61115e565b6001600160a01b038116610fd45760405163d92e233d60e01b815260040160405180910390fd5b60405163bbe4f6db60e01b81526001600160a01b0383811660048301526000917f00000000000000000000000000000000000000000000000000000000000000009091169063bbe4f6db90602401602060405180830381865afa15801561103f573d6000803e3d6000fd5b505050506040513d601f19601f8201168201806040525081019061106391906124b2565b90506001600160a01b03811661108c57604051634a7e3c5760e01b815260040160405180910390fd5b604051630b27346f60e11b81526001600160a01b03838116600483015282169063164e68de90602401600060405180830381600087803b1580156110cf57600080fd5b505af11580156110e3573d6000803e3d6000fd5b50505050506110f26001600055565b5050565b6040516001600160a01b03831660248201526044810182905261115990849063a9059cbb60e01b906064015b60408051601f198184030181529190526020810180516001600160e01b03166001600160e01b0319909316929092179091526118a4565b505050565b6002600054036111b55760405162461bcd60e51b815260206004820152601f60248201527f5265656e7472616e637947756172643a207265656e7472616e742063616c6c0060448201526064015b60405180910390fd5b6002600055565b600080846000036111e05760405163098fb56160e01b815260040160405180910390fd5b6040805160c081018252600080825260208201819052918101829052606081018290526080810182905260a081019190915260405163bbe4f6db60e01b81526001600160a01b0385811660048301527f0000000000000000000000000000000000000000000000000000000000000000169063bbe4f6db90602401602060405180830381865afa158015611278573d6000803e3d6000fd5b505050506040513d601f19601f8201168201806040525081019061129c91906124b2565b91506001600160a01b0382166112c557604051634a7e3c5760e01b815260040160405180910390fd5b63ffffffff8016826001600160a01b031663b50754376040518163ffffffff1660e01b8152600401602060405180830381865afa15801561130a573d6000803e3d6000fd5b505050506040513d601f19601f8201168201806040525081019061132e91906124d6565b63ffffffff16146113c757600080836001600160a01b03166343c676716040518163ffffffff1660e01b81526004016040805180830381865afa158015611379573d6000803e3d6000fd5b505050506040513d601f19601f8201168201806040525081019061139d91906124fc565b915091506113be88836001600160701b0316836001600160701b0316611979565b945050506114bc565b816001600160a01b0316632262810b6040518163ffffffff1660e01b815260040160c060405180830381865afa158015611405573d6000803e3d6000fd5b505050506040513d601f19601f82011682018060405250810190611429919061252b565b60a08701526001600160701b03908116608087018190529181166060870181905292811660408701819052938116602087015293909316845260009261146f92916119bd565b90506114b88783604001516001600160701b031684600001516001600160701b031685608001516001600160701b031686602001516001600160701b03168760a0015187611a02565b9350505b848310156114dd57604051637294b85560e11b815260040160405180910390fd5b50935093915050565b6040516001600160a01b038085166024830152831660448201526064810182905261151e9085906323b872dd60e01b90608401611122565b50505050565b61152c6120f9565b7f00000000000000000000000000000000000000000000000000000000000000006001600160a01b0316886001600160a01b0316148061157357506001600160a01b038816155b1561159157604051635079ff7560e11b815260040160405180910390fd5b6001600160a01b03881660c08201526115ae888888888888611b12565b158015845260808401919091526060830191909152611624576115eb83604001516001600160701b031684602001516001600160701b0316611e5d565b6080820181905283516020850151606086015161161a936001600160701b039384169392831692909116611884565b604082015261162f565b606081015160408201525b818015611640575080608001518614155b1561165e57604051630772327b60e01b815260040160405180910390fd5b60c081015160405163bbe4f6db60e01b81526001600160a01b0391821660048201527f00000000000000000000000000000000000000000000000000000000000000009091169063bbe4f6db90602401602060405180830381865afa1580156116cb573d6000803e3d6000fd5b505050506040513d601f19601f820116820180604052508101906116ef91906124b2565b6001600160a01b03166020820152979650505050505050565b60008360000361172b5760405163098fb56160e01b815260040160405180910390fd5b821580611736575081155b156117545760405163bb55fd2760e01b815260040160405180910390fd5b611760846127106125cc565b93506000808061177086886125cc565b92508661177f866127106125cc565b61178991906125e3565b915061179582846125f6565b90506127106117a6826126ad6125cc565b6117b091906125f6565b979650505050505050565b6000856000036117de5760405163098fb56160e01b815260040160405180910390fd5b8415806117e9575083155b156118075760405163bb55fd2760e01b815260040160405180910390fd5b611813866127106125cc565b95506000808061182388876125e3565b61182d908a6125cc565b92508861183a88876125e3565b611846906127106125cc565b61185091906125e3565b915061185c82846125f6565b905061271061186d826126ad6125cc565b61187791906125f6565b9998505050505050505050565b600080600061189587878787611e77565b90925090506117b081836125e3565b60006118f9826040518060400160405280602081526020017f5361666545524332303a206c6f772d6c6576656c2063616c6c206661696c6564815250856001600160a01b0316611f209092919063ffffffff16565b905080516000148061191a57508080602001905181019061191a9190612618565b6111595760405162461bcd60e51b815260206004820152602a60248201527f5361666545524332303a204552433230206f7065726174696f6e20646964206e6044820152691bdd081cdd58d8d9595960b21b60648201526084016111ac565b600080611988856126ad6125cc565b9050600061199684836125cc565b90506000826119a7876127106125cc565b6119b191906125e3565b90506117b081836125f6565b6000806119ca83866125cc565b905060006119d885876125e3565b90506119e481806125cc565b6119ee86846125cc565b6119f891906125f6565b9695505050505050565b600080612710611a148a6126ad6125cc565b611a1e91906125f6565b9050600080808089611a30868d6125e3565b1115611a4e5789611a41868d6125e3565b611a4b919061249f565b93505b611a58848661249f565b611a64906127106125cc565b92506000611a728a8a6125e3565b611a7c90856125cc565b9050600084611a8b8f8f6125e3565b611a97906127106125cc565b611aa191906125e3565b9050611aad81836125f6565b93508515611af557611ac1866127106125cc565b9550611acd89876125cc565b915085611adc8d6127106125cc565b611ae691906125e3565b9050611af281836125f6565b92505b611aff83856125e3565b9f9e505050505050505050505050505050565b6000806000611b1f6120f9565b60405163bbe4f6db60e01b81526001600160a01b038b811660048301526000917f00000000000000000000000000000000000000000000000000000000000000009091169063bbe4f6db90602401602060405180830381865afa158015611b8a573d6000803e3d6000fd5b505050506040513d601f19601f82011682018060405250810190611bae91906124b2565b90506001600160a01b038116611c8a5760408051637fd6450560e01b81526001600160a01b038d8116600483015288516001600160701b03908116602484015260208a0151811660448401529289015183166064830152606089015190921660848201527f000000000000000000000000000000000000000000000000000000000000000090911690637fd645059060a4016020604051808303816000875af1158015611c5f573d6000803e3d6000fd5b505050506040513d601f19601f82011682018060405250810190611c8391906124b2565b6001835290505b815115611d2a5785602001516001600160701b031686604001516001600160701b03161015611cd55760608087015187516001600160701b0390811660808601521690830152611e3f565b611d0786600001516001600160701b031687602001516001600160701b031688606001516001600160701b03166119bd565b60408084018290528701516001600160701b031660808401526060830152611e3f565b600080826001600160a01b0316630902f1ac6040518163ffffffff1660e01b81526004016040805180830381865afa158015611d6a573d6000803e3d6000fd5b505050506040513d601f19601f82011682018060405250810190611d8e91906124fc565b6001600160701b031691506001600160701b031691506000611db18c8484611f2f565b90508c8111611dee578a811015611ddb57604051631762402160e11b815260040160405180910390fd5b608085018c905260608501819052611e3b565b6000611dfb8e8486611f2f565b90508c811115611e0d57611e0d61214a565b8a811015611e2e57604051635ebb7b9d60e01b815260040160405180910390fd5b6080860152606085018d90525b5050505b50606081015160808201519151909b919a5098509650505050505050565b6000818310611e6c5781611e6e565b825b90505b92915050565b60008080611e8584886125cc565b9050611e9186886125e3565b611e9b90826125f6565b611ea5908561249f565b92506000611eb387896125e3565b9050611ebf81806125cc565b611ec988846125cc565b611ed391906125f6565b92508515611f15576000611ee786886125cc565b90506000611ef5888b6125e3565b90506000611f0382846125f6565b9050611f0f818861249f565b96505050505b505094509492505050565b6060610f9d8484600085611f90565b600083600003611f525760405163098fb56160e01b815260040160405180910390fd5b821580611f5d575081155b15611f7b5760405163bb55fd2760e01b815260040160405180910390fd5b82611f8683866125cc565b610f9d91906125f6565b606082471015611ff15760405162461bcd60e51b815260206004820152602660248201527f416464726573733a20696e73756666696369656e742062616c616e636520666f6044820152651c8818d85b1b60d21b60648201526084016111ac565b600080866001600160a01b0316858760405161200d919061265e565b60006040518083038185875af1925050503d806000811461204a576040519150601f19603f3d011682016040523d82523d6000602084013e61204f565b606091505b50915091506117b087838387606083156120ca5782516000036120c3576001600160a01b0385163b6120c35760405162461bcd60e51b815260206004820152601d60248201527f416464726573733a2063616c6c20746f206e6f6e2d636f6e747261637400000060448201526064016111ac565b5081610f9d565b610f9d83838151156120df5781518083602001fd5b8060405162461bcd60e51b81526004016111ac919061267a565b6040518060e0016040528060001515815260200160006001600160a01b031681526020016000815260200160008152602001600081526020016000815260200160006001600160a01b031681525090565b634e487b7160e01b600052600160045260246000fd5b6001600160a01b038116811461217557600080fd5b50565b60008060008060008060c0878903121561219157600080fd5b863561219c81612160565b955060208701359450604087013593506060870135925060808701356121c181612160565b8092505060a087013590509295509295509295565b600080600080600060a086880312156121ee57600080fd5b8535945060208601359350604086013561220781612160565b9250606086013561221781612160565b949793965091946080013592915050565b6001600160701b038116811461217557600080fd5b60006080828403121561224f57600080fd5b6040516080810181811067ffffffffffffffff8211171561228057634e487b7160e01b600052604160045260246000fd5b604052905080823561229181612228565b815260208301356122a181612228565b602082015260408301356122b481612228565b604082015260608301356122c781612228565b6060919091015292915050565b6000806000806000806000610140888a0312156122f057600080fd5b87356122fb81612160565b9650602088013595506040880135945060608801359350608088013561232081612160565b925060a088013591506123368960c08a0161223d565b905092959891949750929550565b6000806000806080858703121561235a57600080fd5b84359350602085013561236c81612160565b9250604085013561237c81612160565b9396929550929360600135925050565b600080600080600080600080610160898b0312156123a957600080fd5b88356123b481612160565b97506020890135965060408901359550606089013594506080890135935060a08901356123e081612160565b925060c089013591506123f68a60e08b0161223d565b90509295985092959890939650565b6000806000806080858703121561241b57600080fd5b5050823594602084013594506040840135936060013592509050565b6000806040838503121561244a57600080fd5b823561245581612160565b9150602083013561246581612160565b809150509250929050565b60006020828403121561248257600080fd5b5051919050565b634e487b7160e01b600052601160045260246000fd5b81810381811115611e7157611e71612489565b6000602082840312156124c457600080fd5b81516124cf81612160565b9392505050565b6000602082840312156124e857600080fd5b815163ffffffff811681146124cf57600080fd5b6000806040838503121561250f57600080fd5b825161251a81612228565b602084015190925061246581612228565b60008060008060008060c0878903121561254457600080fd5b865161254f81612228565b602088015190965061256081612228565b604088015190955061257181612228565b606088015190945061258281612228565b608088015190935061259381612228565b8092505060a087015190509295509295509295565b600080604083850312156125bb57600080fd5b505080516020909101519092909150565b8082028115828204841417611e7157611e71612489565b80820180821115611e7157611e71612489565b60008261261357634e487b7160e01b600052601260045260246000fd5b500490565b60006020828403121561262a57600080fd5b815180151581146124cf57600080fd5b60005b8381101561265557818101518382015260200161263d565b50506000910152565b6000825161267081846020870161263a565b9190910192915050565b602081526000825180602084015261269981604085016020870161263a565b601f01601f1916919091016040019291505056fea2646970667358221220f350011d7bcf94191217abb8aa18359614abc378bfbd89ffe8fa49b88f92779c64736f6c63430008130033","linkReferences":{}},"methodIdentifiers":{"FACTORY()":"2dd31000","WETH()":"ad5c4648","addLiquidity(address,uint256,uint256,uint256,uint256,address,uint256,(uint112,uint112,uint112,uint112))":"959d7097","addLiquidityETH(address,uint256,uint256,uint256,address,uint256,(uint112,uint112,uint112,uint112))":"3397359b","getActualBootstrapTokenAmount(uint256,uint256,uint256,uint256)":"9ab9c5af","removeLiquidity(address,uint256,uint256,uint256,address,uint256)":"96c92f5e","removeLiquidityETH(address,uint256,uint256,uint256,address,uint256)":"02751cec","swapExactETHForTokens(uint256,address,address,uint256)":"45177656","swapExactTokensForWeth(uint256,uint256,address,address,uint256)":"3c302c1a","swapWethForExactTokens(uint256,uint256,address,address,uint256)":"0b92e95d","withdrawFees(address,address)":"f2555278"},"id":11}