{"abi":[{"type":"constructor","inputs":[{"name":"_weth","type":"address","internalType":"address"}],"stateMutability":"nonpayable"},{"type":"function","name":"acceptTreasury","inputs":[],"outputs":[],"stateMutability":"nonpayable"},{"type":"function","name":"createPair","inputs":[{"name":"token","type":"address","internalType":"address"},{"name":"params","type":"tuple","internalType":"struct GoatTypes.InitParams","components":[{"name":"virtualEth","type":"uint112","internalType":"uint112"},{"name":"bootstrapEth","type":"uint112","internalType":"uint112"},{"name":"initialEth","type":"uint112","internalType":"uint112"},{"name":"initialTokenMatch","type":"uint112","internalType":"uint112"}]}],"outputs":[{"name":"","type":"address","internalType":"address"}],"stateMutability":"nonpayable"},{"type":"function","name":"getPool","inputs":[{"name":"token","type":"address","internalType":"address"}],"outputs":[{"name":"","type":"address","internalType":"address"}],"stateMutability":"view"},{"type":"function","name":"minimumCollectableFees","inputs":[],"outputs":[{"name":"","type":"uint256","internalType":"uint256"}],"stateMutability":"view"},{"type":"function","name":"pendingTreasury","inputs":[],"outputs":[{"name":"","type":"address","internalType":"address"}],"stateMutability":"view"},{"type":"function","name":"pools","inputs":[{"name":"","type":"address","internalType":"address"}],"outputs":[{"name":"","type":"address","internalType":"address"}],"stateMutability":"view"},{"type":"function","name":"removePair","inputs":[{"name":"token","type":"address","internalType":"address"}],"outputs":[],"stateMutability":"nonpayable"},{"type":"function","name":"setFeeToTreasury","inputs":[{"name":"_minimumCollectibleFees","type":"uint256","internalType":"uint256"}],"outputs":[],"stateMutability":"nonpayable"},{"type":"function","name":"setTreasury","inputs":[{"name":"_pendingTreasury","type":"address","internalType":"address"}],"outputs":[],"stateMutability":"nonpayable"},{"type":"function","name":"treasury","inputs":[],"outputs":[{"name":"","type":"address","internalType":"address"}],"stateMutability":"view"},{"type":"function","name":"weth","inputs":[],"outputs":[{"name":"","type":"address","internalType":"address"}],"stateMutability":"view"},{"type":"event","name":"PairCreated","inputs":[{"name":"weth","type":"address","indexed":true,"internalType":"address"},{"name":"token","type":"address","indexed":true,"internalType":"address"},{"name":"pair","type":"address","indexed":false,"internalType":"address"}],"anonymous":false},{"type":"event","name":"PairRemoved","inputs":[{"name":"token","type":"address","indexed":true,"internalType":"address"},{"name":"pair","type":"address","indexed":false,"internalType":"address"}],"anonymous":false},{"type":"error","name":"CannnotPairWithBaseAsset","inputs":[]},{"type":"error","name":"Forbidden","inputs":[]},{"type":"error","name":"InvalidParams","inputs":[]},{"type":"error","name":"PairExists","inputs":[]}],"bytecode":{"object":"0x60a060405267016345785d8a00006004553480156200001d57600080fd5b50604051620047e7380380620047e78339810160408190526200004091620000de565b6001600160a01b0381166080819052604080516306fdde0360e01b815290516306fdde03916004808201926000929091908290030181865afa1580156200008b573d6000803e3d6000fd5b505050506040513d6000823e601f3d908101601f19168201604052620000b5919081019062000126565b600090620000c490826200028a565b5050600180546001600160a01b0319163317905562000356565b600060208284031215620000f157600080fd5b81516001600160a01b03811681146200010957600080fd5b9392505050565b634e487b7160e01b600052604160045260246000fd5b600060208083850312156200013a57600080fd5b82516001600160401b03808211156200015257600080fd5b818501915085601f8301126200016757600080fd5b8151818111156200017c576200017c62000110565b604051601f8201601f19908116603f01168101908382118183101715620001a757620001a762000110565b816040528281528886848701011115620001c057600080fd5b600093505b82841015620001e45784840186015181850187015292850192620001c5565b600086848301015280965050505050505092915050565b600181811c908216806200021057607f821691505b6020821081036200023157634e487b7160e01b600052602260045260246000fd5b50919050565b601f8211156200028557600081815260208120601f850160051c81016020861015620002605750805b601f850160051c820191505b8181101562000281578281556001016200026c565b5050505b505050565b81516001600160401b03811115620002a657620002a662000110565b620002be81620002b78454620001fb565b8462000237565b602080601f831160018114620002f65760008415620002dd5750858301515b600019600386901b1c1916600185901b17855562000281565b600085815260208120601f198616915b82811015620003275788860151825594840194600190910190840162000306565b5085821015620003465787850151600019600388901b60f8161c191681555b5050505050600190811b01905550565b608051614460620003876000396000818161010f0152818161029f0152818161034101526103d901526144606000f3fe608060405234801561001057600080fd5b50600436106100a95760003560e01c80637fd64505116100715780637fd6450514610144578063a4063dbc14610157578063af6c9c1d14610180578063bbe4f6db14610193578063e49d2a30146101bf578063f0f44260146101c757600080fd5b8063019494b3146100ae5780632ed6b75d146100c35780633507522d146100f35780633fc8cef31461010a57806361d027b314610131575b600080fd5b6100c16100bc366004610571565b6101da565b005b6002546100d6906001600160a01b031681565b6040516001600160a01b0390911681526020015b60405180910390f35b6100fc60045481565b6040519081526020016100ea565b6100d67f000000000000000000000000000000000000000000000000000000000000000081565b6001546100d6906001600160a01b031681565b6100d66101523660046105bd565b61020a565b6100d661016536600461066f565b6003602052600090815260409020546001600160a01b031681565b6100c161018e36600461066f565b61042e565b6100d66101a136600461066f565b6001600160a01b039081166000908152600360205260409020541690565b6100c16104cc565b6100c16101d536600461066f565b610517565b6001546001600160a01b0316331461020557604051631dd2188d60e31b815260040160405180910390fd5b600455565b600081602001516001600160701b031660001480610230575081516001600160701b0316155b80610246575060608201516001600160701b0316155b1561026457604051635435b28960e11b815260040160405180910390fd5b6001600160a01b03838116600090815260036020526040902054161561029d57604051633d77e89160e01b815260040160405180910390fd5b7f00000000000000000000000000000000000000000000000000000000000000006001600160a01b0316836001600160a01b0316036102ee576040516219b2bb60e21b815260040160405180910390fd5b60006040516102fc90610564565b604051809103906000f080158015610318573d6000803e3d6000fd5b5060405162c173d360e21b81529091506001600160a01b03821690630305cf4c9061036e9087907f0000000000000000000000000000000000000000000000000000000000000000906000908990600401610691565b600060405180830381600087803b15801561038857600080fd5b505af115801561039c573d6000803e3d6000fd5b505050506001600160a01b0384811660008181526003602090815260409182902080546001600160a01b03191686861690811790915591519182527f0000000000000000000000000000000000000000000000000000000000000000909316927fa92a2b95c8d8436f6ac4c673c61487364f877efb9534d4296fad8ef904546c94910160405180910390a39392505050565b6001600160a01b038082166000908152600360205260409020541633811461046957604051631dd2188d60e31b815260040160405180910390fd5b6001600160a01b0382811660008181526003602090815260409182902080546001600160a01b03191690559051928416835290917fcfacf9d602eaae62e56c577b2340ef89b971ff33287fa964a1d17027e8ea2d42910160405180910390a25050565b6002546001600160a01b031633146104f757604051631dd2188d60e31b815260040160405180910390fd5b600280546001600160a01b03199081169091556001805490911633179055565b6001546001600160a01b0316331461054257604051631dd2188d60e31b815260040160405180910390fd5b600280546001600160a01b0319166001600160a01b0392909216919091179055565b613c908061079b83390190565b60006020828403121561058357600080fd5b5035919050565b80356001600160a01b03811681146105a157600080fd5b919050565b80356001600160701b03811681146105a157600080fd5b60008082840360a08112156105d157600080fd5b6105da8461058a565b92506080601f19820112156105ee57600080fd5b506040516080810181811067ffffffffffffffff8211171561062057634e487b7160e01b600052604160045260246000fd5b60405261062f602085016105a6565b815261063d604085016105a6565b602082015261064e606085016105a6565b604082015261065f608085016105a6565b6060820152809150509250929050565b60006020828403121561068157600080fd5b61068a8261058a565b9392505050565b6001600160a01b038581168252841660208083019190915260e0604083015283546000918291600181811c90828116806106cc57607f831692505b84831081036106e957634e487b7160e01b86526022600452602486fd5b60e088018390526101008801818015610709576001811461071f5761074a565b60ff198616825284151560051b8201975061074a565b60008c81526020902060005b868110156107445781548482015290850190880161072b565b83019850505b505088516001600160701b0390811660608a81019190915260208b0151821660808b015260408b0151821660a08b01528a01511660c0890152509394506107919350505050565b9594505050505056fe60c060405234801561001057600080fd5b5060016006553360805263ffffffff421660a05260805160a051613c2b6100656000396000610b140152600081816106270152818161070901528181610cde01528181612b3c0152612e310152613c2b6000f3fe608060405234801561001057600080fd5b50600436106102055760003560e01c806370a082311161011a578063a9059cbb116100ad578063c45a01551161007c578063c45a015514610622578063d5f839fc14610661578063dd62ed3e1461068c578063e452f709146106c5578063fff6cae9146106d657600080fd5b8063a9059cbb146105c8578063b5075437146105db578063ba9a7a56146105f0578063c350cf3d146105f957600080fd5b806390d98e00116100e957806390d98e001461054657806395d89b41146105665780639bc289f11461056e5780639de3beec1461059d57600080fd5b806370a08231146104c257806381889f11146104eb57806389afcb441461050b57806389c510451461053357600080fd5b806318160ddd1161019d57806332d5d74e1161016c57806332d5d74e146103825780633da447d71461038a57806343c67671146104805780636a6278421461049c5780636d9a640a146104af57600080fd5b806318160ddd146103025780632262810b1461030a57806323b872dd14610355578063313ce5671461036857600080fd5b80630902f1ac116101d95780630902f1ac14610279578063095ea7b3146102a15780630f8ee220146102c4578063164e68de146102ef57600080fd5b80628cc2621461020a5780630197d972146102305780630305cf4c1461024f57806306fdde0314610264575b600080fd5b61021d61021836600461348e565b6106de565b6040519081526020015b60405180910390f35b61023a62093a8081565b60405163ffffffff9091168152602001610227565b61026261025d3660046135b1565b6106fe565b005b61026c6108b1565b604051610227919061368c565b61028161093f565b604080516001600160701b03938416815292909116602083015201610227565b6102b46102af3660046136bf565b61097e565b6040519015158152602001610227565b600c546102d7906001600160b81b031681565b6040516001600160b81b039091168152602001610227565b6102626102fd36600461348e565b610994565b60025461021d565b610312610a4c565b604080516001600160701b0397881681529587166020870152938616938501939093529084166060840152909216608082015260a081019190915260c001610227565b6102b46103633660046136eb565b610a8f565b610370601281565b60405160ff9091168152602001610227565b610262610b09565b61041f6040805160a081018252600080825260208201819052918101829052606081018290526080810191909152506040805160a0810182526010546001600160a01b031681526011546001600160681b0381166020830152600160681b81046001600160701b031692820192909252600160d81b820463ffffffff166060820152600160f81b90910460ff16608082015290565b604051610227919081516001600160a01b031681526020808301516001600160681b0316908201526040808301516001600160701b03169082015260608083015163ffffffff169082015260809182015160ff169181019190915260a00190565b600a546001600160701b0380821691600160701b900416610281565b61021d6104aa36600461348e565b610d47565b6102626104bd36600461372c565b611144565b61021d6104d036600461348e565b6001600160a01b031660009081526003602052604090205490565b61021d6104f936600461348e565b600e6020526000908152604090205481565b61051e61051936600461348e565b611703565b60408051928352602083019190915201610227565b610262610541366004613765565b611959565b61021d61055436600461348e565b600f6020526000908152604090205481565b61026c611e44565b61023a61057c36600461348e565b6001600160a01b031660009081526005602052604090205463ffffffff1690565b600b54600160701b90046001600160701b03166040516001600160701b039091168152602001610227565b6102b46105d63660046136bf565b611e51565b600954600160e01b900463ffffffff1661023a565b61021d6103e881565b61021d61060736600461348e565b6001600160a01b03166000908152600d602052604090205490565b6106497f000000000000000000000000000000000000000000000000000000000000000081565b6040516001600160a01b039091168152602001610227565b600c54600160b81b90046001600160481b03166040516001600160481b039091168152602001610227565b61021d61069a366004613781565b6001600160a01b03918216600090815260046020908152604080832093909416825291909152205490565b600c546001600160b81b031661021d565b610262611e5e565b600c546000906106f89083906001600160b81b0316611f61565b92915050565b336001600160a01b037f00000000000000000000000000000000000000000000000000000000000000001614610747576040516301892d0160e21b815260040160405180910390fd5b600780546001600160a01b038087166001600160a01b031992831681179093556008805491871691909216179055600980546001600160e01b03166001600160e01b0319179055604080516306fdde0360e01b81529051600092916306fdde0391600480830192869291908290030181865afa1580156107cb573d6000803e3d6000fd5b505050506040513d6000823e601f3d908101601f191682016040526107f391908101906137ba565b90508281604051602001610808929190613828565b604051602081830303815290604052600090816108259190613907565b5082816040516020016108399291906139c7565b604051602081830303815290604052600190816108569190613907565b505060608101516009805483516001600160701b039081166001600160701b0319948216600160701b0285166001600160e01b03199093169290921791909117909155602090920151600b8054919093169116179055505050565b600080546108be9061387f565b80601f01602080910402602001604051908101604052809291908181526020018280546108ea9061387f565b80156109375780601f1061090c57610100808354040283529160200191610937565b820191906000526020600020905b81548152906001019060200180831161091a57829003601f168201915b505050505081565b600954600a54600091829161097591600160e01b900463ffffffff16906001600160701b0380821691600160701b900416611ff7565b90939092509050565b600061098b338484612062565b50600192915050565b600c546000906109ae9083906001600160b81b0316611f61565b90508015610a4857600c546001600160a01b0383166000908152600f602090815260408083206001600160b81b03909416909355600e9081905291812055600b8054839290610a0e908490600160701b90046001600160701b0316613a2c565b82546001600160701b039182166101009390930a928302919092021990911617905550600854610a48906001600160a01b031683836120c4565b5050565b600a54600954600b546001600160701b0380841693600160701b9081900482169380831693919004821691166000610a85848385612116565b9050909192939495565b6001600160a01b038316600090815260046020908152604080832033845290915281205460001914610af4576001600160a01b038416600090815260046020908152604080832033845290915281208054849290610aee908490613a53565b90915550505b610aff84848461214b565b5060019392505050565b4280610b3862278d007f0000000000000000000000000000000000000000000000000000000000000000613a66565b63ffffffff161115610b5d57604051630327a0c960e51b815260040160405180910390fd5b600954600160e01b900463ffffffff90811614610b8d5760405163829e373360e01b815260040160405180910390fd5b6010546001600160a01b0316338114610bb8576040516282b42960e81b815260040160405180910390fd5b600a546009546001600160701b03918216918291600091610be9918082169185918591600160701b909104166121f7565b6007546040516370a0823160e01b81523060048201529193506001600160a01b0316915060009082906370a0823190602401602060405180830381865afa158015610c38573d6000803e3d6000fd5b505050506040513d601f19601f82011682018060405250810190610c5c9190613a83565b90506000610c6a8483613a53565b9050610c806001600160a01b03841688836120c4565b8515610cbc57610c9086856122a0565b600b80546001600160701b0319166001600160701b038716179055610cb78685600061235c565b610d3d565b60075460405163af6c9c1d60e01b81526001600160a01b0391821660048201527f00000000000000000000000000000000000000000000000000000000000000009091169063af6c9c1d90602401600060405180830381600087803b158015610d2457600080fd5b505af1158015610d38573d6000803e3d6000fd5b505050505b5050505050505050565b6000610d5161241b565b6000610d5c60025490565b6008546040516370a0823160e01b8152306004820152919250600091829182916001600160a01b03909116906370a0823190602401602060405180830381865afa158015610dae573d6000803e3d6000fd5b505050506040513d601f19601f82011682018060405250810190610dd29190613a83565b6007546040516370a0823160e01b81523060048201529192506000916001600160a01b03909116906370a0823190602401602060405180830381865afa158015610e20573d6000803e3d6000fd5b505050506040513d601f19601f82011682018060405250810190610e449190613a83565b60408051608081018252600060608201526009546001600160701b038082168352600160701b820481166020840152600b54169282019290925291925063ffffffff600160e01b9091041663fffffffe1901610fe1578515610eb95760405163315408a360e01b815260040160405180910390fd5b8060400151831115610ede576040516308e8805b60e11b815260040160405180910390fd5b8060400151831015610f8957600080610f1783600001516001600160701b031684604001518786602001516001600160701b03166121f7565b9092509050610f268183613a9c565b8414610f4557604051631762402160e11b815260040160405180910390fd5b6103e8610f7684602001516001600160701b031685600001516001600160701b0316610f719190613aaf565b612479565b610f809190613a53565b98505050610fd5565b6103e8610f99610f718486613aaf565b610fa39190613a53565b965042610fb362093a8082613a66565b6009601c6101000a81548163ffffffff021916908363ffffffff160217905550505b60016060820152611081565b600080610fec61093f565b600c54600b546001600160701b0393841695509183169350600160b81b90046001600160481b031691600160701b909104166110288488613a53565b6110329190613a53565b61103c9190613a53565b96506110488185613a53565b955061107c826110588a8a613aaf565b6110629190613adc565b8261106d8b8a613aaf565b6110779190613adc565b612568565b985050505b80606001518061109e57506010546001600160a01b038981169116145b156110b1576110b187848a60008061257e565b80606001516110c3576110c38861276c565b856000036110d8576110d860006103e86127ad565b6110e288886127ad565b6110ee8383600161235c565b60408051338152602081018790529081018590527f4c209b5fc8ad50758f13e2e1088ba56a560dff690a1c6fef26394f4c03821c4f9060600160405180910390a150505050505061113f6001600655565b919050565b61114c61241b565b82158015611158575081155b15611176576040516342301c2360e01b815260040160405180910390fd5b821580159061118457508115155b156111a257604051630a5f7a2760e11b815260040160405180910390fd5b611233604051806102200160405280600015158152602001600015158152602001600081526020016000815260200160008152602001600081526020016000815260200160008152602001600081526020016000815260200160008152602001600063ffffffff16815260200160008152602001600081526020016000815260200160008152602001600081525090565b60008311611242576001611245565b60005b1515808252611253906128cc565b600a546001600160701b03600160701b8204811660608401819052911660408301528411806112855750806040015183115b156112a357604051637294b85560e11b815260040160405180910390fd5b80511561138457600c54600b5460408381015160085491516370a0823160e01b8152306004820152600160b81b9094046001600160481b031693600160701b9093046001600160701b03169290916001600160a01b0316906370a0823190602401602060405180830381865afa158015611321573d6000803e3d6000fd5b505050506040513d601f19601f820116820180604052508101906113459190613a83565b61134f9190613a53565b6113599190613a53565b6113639190613a53565b60c082015260075461137f906001600160a01b031683866120c4565b61141b565b60608101516007546040516370a0823160e01b81523060048201526001600160a01b03909116906370a0823190602401602060405180830381865afa1580156113d1573d6000803e3d6000fd5b505050506040513d601f19601f820116820180604052508101906113f59190613a83565b6113ff9190613a53565b60e082015260085461141b906001600160a01b031683856120c4565b60095463ffffffff600160e01b90910481166101608301819052146020820181905260c082015161144d9185906129f4565b6101208301526101008201528051611469578060e0015161146b565b835b6101408201526101608101514263ffffffff909116111561149a5761149a828261014001518360000151612c7a565b8051156114c0578061010001518160c0018181516114b89190613a53565b9052506114cb565b806101000151830192505b80516114e6578281604001516114e19190613a53565b6114fa565b8060c0015181604001516114fa9190613a9c565b6080820152805161151e578060e0015181606001516115199190613a9c565b61152e565b83816060015161152e9190613a53565b60a0820152600b546001600160701b03166101808201526020810151801561156e5750806101800151816101200151826080015161156c9190613a9c565b115b1561159a57611595816101200151826080015161158b9190613a9c565b8260a00151612cd5565b611641565b6115b281610160015182604001518360600151611ff7565b6001600160701b039081166101c0840152166101a0820152610160810151608082015160a08301516115e5929190611ff7565b6001600160701b03908116610200840181905291166101e0830181905261160c9190613aaf565b816101c00151826101a001516116229190613aaf565b11156116415760405163bf6056e760e01b815260040160405180910390fd5b80602001511561166657806101200151816080018181516116629190613a9c565b9052505b61167a81608001518260a00151600061235c565b7fd78ad95fa46c994b6551d0da85fc275fe613ce37657fb8d5e3d130840159d822338261010001518360c001516116b19190613a9c565b60e0840151604080516001600160a01b0394851681526020810193909352820152606081018690526080810187905290841660a082015260c00160405180910390a1506116fe6001600655565b505050565b3060009081526003602052604081205460095482919063ffffffff600160e01b9091041663fffffffe190161174b5760405163315408a360e01b815260040160405180910390fd5b600061175660025490565b600a549091508190611771906001600160701b031684613aaf565b61177b9190613adc565b600a54909450819061179d90600160701b90046001600160701b031684613aaf565b6117a79190613adc565b92508315806117b4575082155b156117d25760405163749383ad60e01b815260040160405180910390fd5b6117db8561276c565b6117e53083612d60565b6008546117fc906001600160a01b031686866120c4565b600754611813906001600160a01b031686856120c4565b6008546040516370a0823160e01b81523060048201526000916001600160a01b0316906370a0823190602401602060405180830381865afa15801561185c573d6000803e3d6000fd5b505050506040513d601f19601f820116820180604052508101906118809190613a83565b6007546040516370a0823160e01b81523060048201529192506000916001600160a01b03909116906370a0823190602401602060405180830381865afa1580156118ce573d6000803e3d6000fd5b505050506040513d601f19601f820116820180604052508101906118f29190613a83565b90506119008282600161235c565b60408051338152602081018890529081018690526001600160a01b03881660608201527fdccd412f0b1252819cb1fd330b93224ca42612892bb3f4f789976e6d819364969060800160405180910390a150505050915091565b600954600160e01b900463ffffffff908116146119895760405163829e373360e01b815260040160405180910390fd5b6040805160a080820183526010546001600160a01b031682526011546001600160681b038082166020808601918252600160681b84046001600160701b0390811687890152600160d81b850463ffffffff16606080890191909152600160f81b90950460ff16608080890191909152885161018081018a526000808252938101849052988901839052948801829052938701819052610100870181905261012087018190526101408701819052610160870152600954808416948701859052600b54841660e08801819052600160701b90910490931660c0870181905290519495943394611a7d94909390929116906121f7565b836020018460400182815250828152505050611acf84600001516001600160701b031685602001516001600160701b031686604001516001600160701b031687606001516001600160701b03166121f7565b608084015260608301526040820151602083015161271091611af091613a9c565b611afc90612af8613aaf565b611b069190613adc565b80835260608301516080840151611b1d9190613a9c565b1015611b3c576040516394f6190560e01b815260040160405180910390fd5b600a546001600160701b039081166101208401819052855160208701516060880151611b70949283169391831692166121f7565b60808401526060830152600a54600160701b90046001600160701b031661010083018190526007546040516370a0823160e01b8152306004820152600092916001600160a01b0316906370a0823190602401602060405180830381865afa158015611bdf573d6000803e3d6000fd5b505050506040513d601f19601f82011682018060405250810190611c039190613a83565b611c0d9190613a53565b90508260800151836060015184610100015185604001518660200151611c339190613a9c565b611c3d9190613a53565b611c479190613a9c565b611c519190613a9c565b811015611c7157604051637a20cef360e01b815260040160405180910390fd5b600b54600160701b90046001600160701b03166101608401819052600c54600160b81b90046001600160481b031661014085018190526101208501516008546040516370a0823160e01b815230600482015260009492916001600160a01b0316906370a0823190602401602060405180830381865afa158015611cf8573d6000803e3d6000fd5b505050506040513d601f19601f82011682018060405250810190611d1c9190613a83565b611d269190613a53565b611d309190613a53565b611d3a9190613a53565b9050836101200151811015611d6257604051633143bd6f60e01b815260040160405180910390fd5b6008546007548651610120870151610100880151611d8f946001600160a01b039081169416929190612deb565b84516001600160a01b03166000908152600360205260409020548551611db59082612d60565b6103e8611de188606001516001600160701b031689600001516001600160701b0316610f719190613aaf565b611deb9190613a53565b9050611df784826127ad565b611e3b87600001516001600160701b031688602001516001600160701b031689606001516001600160701b03168587868a8e604001516001600160701b0316612ed8565b50505050505050565b600180546108be9061387f565b600061098b33848461214b565b611e6661241b565b6007546040516370a0823160e01b81523060048201526000916001600160a01b0316906370a0823190602401602060405180830381865afa158015611eaf573d6000803e3d6000fd5b505050506040513d601f19601f82011682018060405250810190611ed39190613a83565b6008546040516370a0823160e01b81523060048201529192506000916001600160a01b03909116906370a0823190602401602060405180830381865afa158015611f21573d6000803e3d6000fd5b505050506040513d601f19601f82011682018060405250810190611f459190613a83565b9050611f538183600161235c565b5050611f5f6001600655565b565b6001600160a01b0382166000908152600f60205260408120548190611f869084613a53565b90506000670de0b6b3a764000082611fb3876001600160a01b031660009081526003602052604090205490565b611fbd9190613aaf565b611fc79190613adc565b6001600160a01b0386166000908152600e6020526040902054909150611fee908290613a9c565b95945050505050565b60008063ffffffff8581161461201157508290508161205a565b600954600b546001600160701b03600160701b830481169281169160009161203c9184911685612116565b90506120488783613a9c565b94506120548682613a9c565b93505050505b935093915050565b6001600160a01b0383811660008181526004602090815260408083209487168084529482529182902085905590518481527f8c5be1e5ebec7d5bd14f71427d1e84f3dd0314c0f7b2291e5b200ac8c7c3b92591015b60405180910390a3505050565b604080516001600160a01b038416602482015260448082018490528251808303909101815260649091019091526020810180516001600160e01b031663a9059cbb60e01b1790526116fe908490612f4e565b600080600061212886866000876121f7565b90925090506121378183613a9c565b6121419085613a53565b9695505050505050565b612156838383613023565b6001600160a01b0383166000908152600360205260408120805483929061217e908490613a53565b90915550506001600160a01b038216600090815260036020526040812080548392906121ab908490613a9c565b92505081905550816001600160a01b0316836001600160a01b03167fddf252ad1be2c89b69c2b068fc378daa952ba7f163c4a11628f55a4df523b3ef836040516120b791815260200190565b600080806122058488613aaf565b90506122118688613a9c565b61221b9082613adc565b6122259085613a53565b925060006122338789613a9c565b905061223f8180613aaf565b6122498884613aaf565b6122539190613adc565b925085156122955760006122678688613aaf565b90506000612275888b613a9c565b905060006122838284613adc565b905061228f8188613a53565b96505050505b505094509492505050565b6010546001600160a01b0316600081815260036020526040812054906103e86122cc610f718787613aaf565b6122d69190613a53565b9050818110156122fe5760006122ec8284613a53565b90506122f88482612d60565b50612318565b600061230a8383613a53565b905061231684826127ad565b505b612328816000856000600161257e565b61233562093a8042613a9c565b6009601c6101000a81548163ffffffff021916908363ffffffff1602179055505050505050565b80156123ca57600c54600b5461239291600160b81b90046001600160481b031690600160701b90046001600160701b0316613af0565b6123a5906001600160701b031684613a53565b600a80546001600160701b0319166001600160701b03929092169190911790556123e6565b600a80546001600160701b0319166001600160701b0385161790555b50600a80546001600160701b03909216600160701b026dffffffffffffffffffffffffffff60701b1990921691909117905550565b6002600654036124725760405162461bcd60e51b815260206004820152601f60248201527f5265656e7472616e637947756172643a207265656e7472616e742063616c6c0060448201526064015b60405180910390fd5b6002600655565b60008160000361248b57506000919050565b6000600161249884613252565b901c6001901b905060018184816124b1576124b1613ac6565b048201901c905060018184816124c9576124c9613ac6565b048201901c905060018184816124e1576124e1613ac6565b048201901c905060018184816124f9576124f9613ac6565b048201901c9050600181848161251157612511613ac6565b048201901c9050600181848161252957612529613ac6565b048201901c9050600181848161254157612541613ac6565b048201901c90506125618182858161255b5761255b613ac6565b04612568565b9392505050565b60008183106125775781612561565b5090919050565b6040805160a0810182526010546001600160a01b031681526011546001600160681b0381166020830152600160681b81046001600160701b031692820192909252600160d81b820463ffffffff166060820152600160f81b90910460ff1660808201528115612605576125f2600487613b10565b6001600160701b031660408201526126c3565b82156126555780600001516001600160a01b0316846001600160a01b0316036126505763ffffffff4216606082015260808101805160019190612649908390613b36565b60ff169052505b6126c3565b600486826080015160ff16836040015161266f9190613b4f565b6001600160701b03166126829190613a9c565b61268c9190613adc565b6001600160701b03166040820152600460808201526001600160a01b038416815284156126c3576001600160681b03851660208201525b8051601080546001600160a01b039092166001600160a01b03199092169190911790556020810151601180546040840151606085015160809095015160ff16600160f81b026001600160f81b0363ffffffff909616600160d81b02959095166001600160d81b036001600160701b03909216600160681b026001600160d81b03199093166001600160681b03909516949094179190911716919091179190911790555050505050565b600c546001600160b81b03166127828282611f61565b6001600160a01b039092166000908152600e6020908152604080832094909455600f90529190912055565b60006002548211156127cd576127c66202a30042613a9c565b90506127f4565b6002546127dd6202a30084613aaf565b6127e79190613adc565b6127f19042613a9c565b90505b6001600160a01b03831660009081526005602052604090205463ffffffff908116908216111561284a576001600160a01b0383166000908152600560205260409020805463ffffffff191663ffffffff83161790555b816002600082825461285c9190613a9c565b90915550506001600160a01b03831660009081526003602052604081208054849290612889908490613a9c565b90915550506040518281526001600160a01b038416906000907fddf252ad1be2c89b69c2b068fc378daa952ba7f163c4a11628f55a4df523b3ef906020016120b7565b6000816128da5760026128dd565b60015b600a54909150429063ffffffff600160e01b90910481169082168110156129055750806129cc565b8163ffffffff168163ffffffff160361292c5761292560ff841683613a66565b90506129cc565b612937826001613a66565b63ffffffff168163ffffffff1603612972578260ff1660020361296d57604051630a67b0e360e21b815260040160405180910390fd5b6129cc565b61297d826002613a66565b63ffffffff168163ffffffff16036129b3578260ff1660010361296d5760405163fa16384560e01b815260040160405180910390fd5b60405163abc0328f60e01b815260040160405180910390fd5b600a805463ffffffff909216600160e01b026001600160e01b03909216919091179055505050565b6000808415612a1c57612710612a0b866063613aaf565b612a159190613adc565b9150612a43565b836126ad612a2c82612710613aaf565b612a369190613adc565b612a409190613a53565b91505b6064612a50836028613aaf565b612a5a9190613adc565b600c54909150600160b81b90046001600160481b031683612b225781600b600e8282829054906101000a90046001600160701b0316612a999190613af0565b92506101000a8154816001600160701b0302191690836001600160701b03160217905550612ac660025490565b612ad883670de0b6b3a7640000613aaf565b612ae29190613adc565b600c8054600090612afd9084906001600160b81b0316613b7a565b92506101000a8154816001600160b81b0302191690836001600160b81b031602179055505b612b2c8284613a53565b612b369082613a9c565b905060007f000000000000000000000000000000000000000000000000000000000000000090506000816001600160a01b0316633507522d6040518163ffffffff1660e01b8152600401602060405180830381865afa158015612b9d573d6000803e3d6000fd5b505050506040513d601f19601f82011682018060405250810190612bc19190613a83565b905080831115612c4857612c43826001600160a01b03166361d027b36040518163ffffffff1660e01b8152600401602060405180830381865afa158015612c0c573d6000803e3d6000fd5b505050506040513d601f19601f82011682018060405250810190612c309190613b9a565b6008546001600160a01b031690856120c4565b600092505b5050600c80546001600160481b03909216600160b81b026001600160b81b039092169190911790559094909350915050565b8015612ca3576001600160a01b0383166000908152600d60205260409020805483019055505050565b6001600160a01b0383166000908152600d602052604081208054849290612ccb908490613a53565b9091555050505050565b600954600b546000918291612d03916001600160701b03808216928116918591600160701b909104166121f7565b600b54909350612d1e915083906001600160701b0316613aaf565b90506000612d2c8486613aaf565b905081811015612d4f5760405163bf6056e760e01b815260040160405180910390fd5b612d5985856122a0565b5050505050565b6001600160a01b03821660009081526003602052604081208054839290612d88908490613a53565b925050819055508060026000828254612da19190613a53565b90915550506040518181526000906001600160a01b038416907fddf252ad1be2c89b69c2b068fc378daa952ba7f163c4a11628f55a4df523b3ef9060200160405180910390a35050565b8115612ec45760006064612e00846005613aaf565b612e0a9190613adc565b9050612e168184613a53565b9250612e2c6001600160a01b03871685856120c4565b612ec27f00000000000000000000000000000000000000000000000000000000000000006001600160a01b03166361d027b36040518163ffffffff1660e01b8152600401602060405180830381865afa158015612e8d573d6000803e3d6000fd5b505050506040513d601f19601f82011682018060405250810190612eb19190613b9a565b6001600160a01b03881690836120c4565b505b612d596001600160a01b03851684836120c4565b60098054600b80546001600160701b038b81166001600160701b03199290921691909117909155888116600160701b026001600160e01b0319909216908b1617179055601080546001600160a01b031916905560006011819055612f42908490839085908061257e565b610d3d8585600061235c565b6000612fa3826040518060400160405280602081526020017f5361666545524332303a206c6f772d6c6576656c2063616c6c206661696c6564815250856001600160a01b03166132e69092919063ffffffff16565b9050805160001480612fc4575080806020019051810190612fc49190613bb7565b6116fe5760405162461bcd60e51b815260206004820152602a60248201527f5361666545524332303a204552433230206f7065726174696f6e20646964206e6044820152691bdd081cdd58d8d9595960b21b6064820152608401612469565b6040805160a0810182526010546001600160a01b039081168083526011546001600160681b0381166020850152600160681b81046001600160701b031694840194909452600160d81b840463ffffffff166060840152600160f81b90930460ff1660808301529091908416036130ac576040516321d8d00b60e21b815260040160405180910390fd5b805142906001600160a01b03908116908616036131f1576001600160a01b03841630146130eb576040516241650560e51b815260040160405180910390fd5b60095463fffffffe19600160e01b90910463ffffffff16016131205760405163315408a360e01b815260040160405180910390fd5b606082015163ffffffff1661313862093a8083613a53565b10156131575760405163b3c12fdf60e01b815260040160405180910390fd5b816080015160ff166001036131a65781516001600160a01b03166000908152600360205260409020548381146131a05760405163512be58f60e11b815260040160405180910390fd5b506131d4565b81604001516001600160701b03168311156131d457604051632179cbf560e21b815260040160405180910390fd5b6010546131f19084906000906001600160a01b031660018261257e565b6001600160a01b03851660009081526005602052604090205463ffffffff16811015613230576040516347a73ad960e11b815260040160405180910390fd5b6132398561276c565b6001600160a01b0384163014612d5957612d598461276c565b600080608083901c1561326757608092831c92015b604083901c1561327957604092831c92015b602083901c1561328b57602092831c92015b601083901c1561329d57601092831c92015b600883901c156132af57600892831c92015b600483901c156132c157600492831c92015b600283901c156132d357600292831c92015b600183901c156106f85760010192915050565b60606132f584846000856132fd565b949350505050565b60608247101561335e5760405162461bcd60e51b815260206004820152602660248201527f416464726573733a20696e73756666696369656e742062616c616e636520666f6044820152651c8818d85b1b60d21b6064820152608401612469565b600080866001600160a01b0316858760405161337a9190613bd9565b60006040518083038185875af1925050503d80600081146133b7576040519150601f19603f3d011682016040523d82523d6000602084013e6133bc565b606091505b50915091506133cd878383876133d8565b979650505050505050565b60608315613447578251600003613440576001600160a01b0385163b6134405760405162461bcd60e51b815260206004820152601d60248201527f416464726573733a2063616c6c20746f206e6f6e2d636f6e74726163740000006044820152606401612469565b50816132f5565b6132f5838381511561345c5781518083602001fd5b8060405162461bcd60e51b8152600401612469919061368c565b6001600160a01b038116811461348b57600080fd5b50565b6000602082840312156134a057600080fd5b813561256181613476565b634e487b7160e01b600052604160045260246000fd5b604051601f8201601f1916810167ffffffffffffffff811182821017156134ea576134ea6134ab565b604052919050565b600067ffffffffffffffff82111561350c5761350c6134ab565b50601f01601f191660200190565b80356001600160701b038116811461113f57600080fd5b60006080828403121561354357600080fd5b6040516080810181811067ffffffffffffffff82111715613566576135666134ab565b6040529050806135758361351a565b81526135836020840161351a565b60208201526135946040840161351a565b60408201526135a56060840161351a565b60608201525092915050565b60008060008060e085870312156135c757600080fd5b84356135d281613476565b935060208501356135e281613476565b9250604085013567ffffffffffffffff8111156135fe57600080fd5b8501601f8101871361360f57600080fd5b803561362261361d826134f2565b6134c1565b81815288602083850101111561363757600080fd5b8160208401602083013760006020838301015280945050505061365d8660608701613531565b905092959194509250565b60005b8381101561368357818101518382015260200161366b565b50506000910152565b60208152600082518060208401526136ab816040850160208701613668565b601f01601f19169190910160400192915050565b600080604083850312156136d257600080fd5b82356136dd81613476565b946020939093013593505050565b60008060006060848603121561370057600080fd5b833561370b81613476565b9250602084013561371b81613476565b929592945050506040919091013590565b60008060006060848603121561374157600080fd5b8335925060208401359150604084013561375a81613476565b809150509250925092565b60006080828403121561377757600080fd5b6125618383613531565b6000806040838503121561379457600080fd5b823561379f81613476565b915060208301356137af81613476565b809150509250929050565b6000602082840312156137cc57600080fd5b815167ffffffffffffffff8111156137e357600080fd5b8201601f810184136137f457600080fd5b805161380261361d826134f2565b81815285602083850101111561381757600080fd5b611fee826020830160208601613668565b6e023b7b0ba2a3930b234b733ab189d1608d1b81526000835161385281600f850160208801613668565b602f60f81b600f918401918201528351613873816010840160208801613668565b01601001949350505050565b600181811c9082168061389357607f821691505b6020821081036138b357634e487b7160e01b600052602260045260246000fd5b50919050565b601f8211156116fe57600081815260208120601f850160051c810160208610156138e05750805b601f850160051c820191505b818110156138ff578281556001016138ec565b505050505050565b815167ffffffffffffffff811115613921576139216134ab565b6139358161392f845461387f565b846138b9565b602080601f83116001811461396a57600084156139525750858301515b600019600386901b1c1916600185901b1785556138ff565b600085815260208120601f198616915b828110156139995788860151825594840194600190910190840161397a565b50858210156139b75787850151600019600388901b60f8161c191681555b5050505050600190811b01905550565b66476f617456312d60c81b8152600083516139e9816007850160208801613668565b602d60f81b6007918401918201528351613a0a816008840160208801613668565b01600801949350505050565b634e487b7160e01b600052601160045260246000fd5b6001600160701b03828116828216039080821115613a4c57613a4c613a16565b5092915050565b818103818111156106f8576106f8613a16565b63ffffffff818116838216019080821115613a4c57613a4c613a16565b600060208284031215613a9557600080fd5b5051919050565b808201808211156106f8576106f8613a16565b80820281158282048414176106f8576106f8613a16565b634e487b7160e01b600052601260045260246000fd5b600082613aeb57613aeb613ac6565b500490565b6001600160701b03818116838216019080821115613a4c57613a4c613a16565b60006001600160701b0380841680613b2a57613b2a613ac6565b92169190910492915050565b60ff82811682821603908111156106f8576106f8613a16565b6001600160701b03818116838216028082169190828114613b7257613b72613a16565b505092915050565b6001600160b81b03818116838216019080821115613a4c57613a4c613a16565b600060208284031215613bac57600080fd5b815161256181613476565b600060208284031215613bc957600080fd5b8151801515811461256157600080fd5b60008251613beb818460208701613668565b919091019291505056fea264697066735822122071df3c8706a344137421abc40c484b0d555b2ab322660f38100b0e8f60e96ea964736f6c63430008130033a2646970667358221220d65e845130b450d3bdece308a9a8852405274953c290551ee468a48f1708d50164736f6c63430008130033","linkReferences":{}},"methodIdentifiers":{"acceptTreasury()":"e49d2a30","createPair(address,(uint112,uint112,uint112,uint112))":"7fd64505","getPool(address)":"bbe4f6db","minimumCollectableFees()":"3507522d","pendingTreasury()":"2ed6b75d","pools(address)":"a4063dbc","removePair(address)":"af6c9c1d","setFeeToTreasury(uint256)":"019494b3","setTreasury(address)":"f0f44260","treasury()":"61d027b3","weth()":"3fc8cef3"},"id":1}