{"abi":[{"type":"constructor","inputs":[],"stateMutability":"nonpayable"},{"type":"function","name":"allowance","inputs":[{"name":"owner","type":"address","internalType":"address"},{"name":"spender","type":"address","internalType":"address"}],"outputs":[{"name":"","type":"uint256","internalType":"uint256"}],"stateMutability":"view"},{"type":"function","name":"approve","inputs":[{"name":"spender","type":"address","internalType":"address"},{"name":"amount","type":"uint256","internalType":"uint256"}],"outputs":[{"name":"","type":"bool","internalType":"bool"}],"stateMutability":"nonpayable"},{"type":"function","name":"balanceOf","inputs":[{"name":"account","type":"address","internalType":"address"}],"outputs":[{"name":"","type":"uint256","internalType":"uint256"}],"stateMutability":"view"},{"type":"function","name":"decimals","inputs":[],"outputs":[{"name":"","type":"uint8","internalType":"uint8"}],"stateMutability":"view"},{"type":"function","name":"decreaseAllowance","inputs":[{"name":"spender","type":"address","internalType":"address"},{"name":"subtractedValue","type":"uint256","internalType":"uint256"}],"outputs":[{"name":"","type":"bool","internalType":"bool"}],"stateMutability":"nonpayable"},{"type":"function","name":"feePercentage","inputs":[],"outputs":[{"name":"","type":"uint256","internalType":"uint256"}],"stateMutability":"view"},{"type":"function","name":"increaseAllowance","inputs":[{"name":"spender","type":"address","internalType":"address"},{"name":"addedValue","type":"uint256","internalType":"uint256"}],"outputs":[{"name":"","type":"bool","internalType":"bool"}],"stateMutability":"nonpayable"},{"type":"function","name":"name","inputs":[],"outputs":[{"name":"","type":"string","internalType":"string"}],"stateMutability":"view"},{"type":"function","name":"owner","inputs":[],"outputs":[{"name":"","type":"address","internalType":"address"}],"stateMutability":"view"},{"type":"function","name":"renounceOwnership","inputs":[],"outputs":[],"stateMutability":"nonpayable"},{"type":"function","name":"symbol","inputs":[],"outputs":[{"name":"","type":"string","internalType":"string"}],"stateMutability":"view"},{"type":"function","name":"totalSupply","inputs":[],"outputs":[{"name":"","type":"uint256","internalType":"uint256"}],"stateMutability":"view"},{"type":"function","name":"transfer","inputs":[{"name":"recipient","type":"address","internalType":"address"},{"name":"amount","type":"uint256","internalType":"uint256"}],"outputs":[{"name":"","type":"bool","internalType":"bool"}],"stateMutability":"nonpayable"},{"type":"function","name":"transferFrom","inputs":[{"name":"sender","type":"address","internalType":"address"},{"name":"recipient","type":"address","internalType":"address"},{"name":"amount","type":"uint256","internalType":"uint256"}],"outputs":[{"name":"","type":"bool","internalType":"bool"}],"stateMutability":"nonpayable"},{"type":"function","name":"transferOwnership","inputs":[{"name":"newOwner","type":"address","internalType":"address"}],"outputs":[],"stateMutability":"nonpayable"},{"type":"event","name":"Approval","inputs":[{"name":"owner","type":"address","indexed":true,"internalType":"address"},{"name":"spender","type":"address","indexed":true,"internalType":"address"},{"name":"value","type":"uint256","indexed":false,"internalType":"uint256"}],"anonymous":false},{"type":"event","name":"OwnershipTransferred","inputs":[{"name":"previousOwner","type":"address","indexed":true,"internalType":"address"},{"name":"newOwner","type":"address","indexed":true,"internalType":"address"}],"anonymous":false},{"type":"event","name":"Transfer","inputs":[{"name":"from","type":"address","indexed":true,"internalType":"address"},{"name":"to","type":"address","indexed":true,"internalType":"address"},{"name":"value","type":"uint256","indexed":false,"internalType":"uint256"}],"anonymous":false}],"bytecode":{"object":"0x608060405260016006553480156200001657600080fd5b50604051806040016040528060128152602001712332b2a7b72a3930b739b332b92a37b5b2b760711b815250604051806040016040528060048152602001631193d51560e21b81525081600390816200007091906200027d565b5060046200007f82826200027d565b5050506200009c62000096620000b860201b60201c565b620000bc565b620000b23369d3c21bcecceda10000006200010e565b62000371565b3390565b600580546001600160a01b038381166001600160a01b0319831681179093556040519116919082907f8be0079c531659141344cd1fd0a4f28419497f9722a3daafe3b4186f6b6457e090600090a35050565b6001600160a01b038216620001695760405162461bcd60e51b815260206004820152601f60248201527f45524332303a206d696e7420746f20746865207a65726f206164647265737300604482015260640160405180910390fd5b80600260008282546200017d919062000349565b90915550506001600160a01b038216600081815260208181526040808320805486019055518481527fddf252ad1be2c89b69c2b068fc378daa952ba7f163c4a11628f55a4df523b3ef910160405180910390a35050565b505050565b634e487b7160e01b600052604160045260246000fd5b600181811c908216806200020457607f821691505b6020821081036200022557634e487b7160e01b600052602260045260246000fd5b50919050565b601f821115620001d457600081815260208120601f850160051c81016020861015620002545750805b601f850160051c820191505b81811015620002755782815560010162000260565b505050505050565b81516001600160401b03811115620002995762000299620001d9565b620002b181620002aa8454620001ef565b846200022b565b602080601f831160018114620002e95760008415620002d05750858301515b600019600386901b1c1916600185901b17855562000275565b600085815260208120601f198616915b828110156200031a57888601518255948401946001909101908401620002f9565b5085821015620003395787850151600019600388901b60f8161c191681555b5050505050600190811b01905550565b808201808211156200036b57634e487b7160e01b600052601160045260246000fd5b92915050565b610a5d80620003816000396000f3fe608060405234801561001057600080fd5b50600436106100f55760003560e01c8063715018a611610097578063a457c2d711610066578063a457c2d7146101e1578063a9059cbb146101f4578063dd62ed3e14610207578063f2fde38b1461021a57600080fd5b8063715018a6146101ab5780638da5cb5b146101b557806395d89b41146101d0578063a001ecdd146101d857600080fd5b806323b872dd116100d357806323b872dd1461014d578063313ce56714610160578063395093511461016f57806370a082311461018257600080fd5b806306fdde03146100fa578063095ea7b31461011857806318160ddd1461013b575b600080fd5b61010261022d565b60405161010f9190610853565b60405180910390f35b61012b6101263660046108bd565b6102bf565b604051901515815260200161010f565b6002545b60405190815260200161010f565b61012b61015b3660046108e7565b6102d9565b6040516012815260200161010f565b61012b61017d3660046108bd565b610341565b61013f610190366004610923565b6001600160a01b031660009081526020819052604090205490565b6101b361035e565b005b6005546040516001600160a01b03909116815260200161010f565b610102610372565b61013f60065481565b61012b6101ef3660046108bd565b610381565b61012b6102023660046108bd565b610401565b61013f610215366004610945565b61043a565b6101b3610228366004610923565b610465565b60606003805461023c90610978565b80601f016020809104026020016040519081016040528092919081815260200182805461026890610978565b80156102b55780601f1061028a576101008083540402835291602001916102b5565b820191906000526020600020905b81548152906001019060200180831161029857829003601f168201915b5050505050905090565b6000336102cd8185856104de565b60019150505b92915050565b6000806064600654846102ec91906109c8565b6102f691906109df565b9050610303853083610602565b61031785856103128487610a01565b610602565b610336853385610327893361043a565b6103319190610a01565b6104de565b506001949350505050565b6000336102cd818585610354838361043a565b6103319190610a14565b6103666107a7565b6103706000610801565b565b60606004805461023c90610978565b6000338161038f828661043a565b9050838110156103f45760405162461bcd60e51b815260206004820152602560248201527f45524332303a2064656372656173656420616c6c6f77616e63652062656c6f77604482015264207a65726f60d81b60648201526084015b60405180910390fd5b61033682868684036104de565b60008060646006548461041491906109c8565b61041e91906109df565b905061042b333083610602565b6102cd33856103128487610a01565b6001600160a01b03918216600090815260016020908152604080832093909416825291909152205490565b61046d6107a7565b6001600160a01b0381166104d25760405162461bcd60e51b815260206004820152602660248201527f4f776e61626c653a206e6577206f776e657220697320746865207a65726f206160448201526564647265737360d01b60648201526084016103eb565b6104db81610801565b50565b6001600160a01b0383166105405760405162461bcd60e51b8152602060048201526024808201527f45524332303a20617070726f76652066726f6d20746865207a65726f206164646044820152637265737360e01b60648201526084016103eb565b6001600160a01b0382166105a15760405162461bcd60e51b815260206004820152602260248201527f45524332303a20617070726f766520746f20746865207a65726f206164647265604482015261737360f01b60648201526084016103eb565b6001600160a01b0383811660008181526001602090815260408083209487168084529482529182902085905590518481527f8c5be1e5ebec7d5bd14f71427d1e84f3dd0314c0f7b2291e5b200ac8c7c3b925910160405180910390a3505050565b6001600160a01b0383166106665760405162461bcd60e51b815260206004820152602560248201527f45524332303a207472616e736665722066726f6d20746865207a65726f206164604482015264647265737360d81b60648201526084016103eb565b6001600160a01b0382166106c85760405162461bcd60e51b815260206004820152602360248201527f45524332303a207472616e7366657220746f20746865207a65726f206164647260448201526265737360e81b60648201526084016103eb565b6001600160a01b038316600090815260208190526040902054818110156107405760405162461bcd60e51b815260206004820152602660248201527f45524332303a207472616e7366657220616d6f756e7420657863656564732062604482015265616c616e636560d01b60648201526084016103eb565b6001600160a01b03848116600081815260208181526040808320878703905593871680835291849020805487019055925185815290927fddf252ad1be2c89b69c2b068fc378daa952ba7f163c4a11628f55a4df523b3ef910160405180910390a350505050565b6005546001600160a01b031633146103705760405162461bcd60e51b815260206004820181905260248201527f4f776e61626c653a2063616c6c6572206973206e6f7420746865206f776e657260448201526064016103eb565b600580546001600160a01b038381166001600160a01b0319831681179093556040519116919082907f8be0079c531659141344cd1fd0a4f28419497f9722a3daafe3b4186f6b6457e090600090a35050565b600060208083528351808285015260005b8181101561088057858101830151858201604001528201610864565b506000604082860101526040601f19601f8301168501019250505092915050565b80356001600160a01b03811681146108b857600080fd5b919050565b600080604083850312156108d057600080fd5b6108d9836108a1565b946020939093013593505050565b6000806000606084860312156108fc57600080fd5b610905846108a1565b9250610913602085016108a1565b9150604084013590509250925092565b60006020828403121561093557600080fd5b61093e826108a1565b9392505050565b6000806040838503121561095857600080fd5b610961836108a1565b915061096f602084016108a1565b90509250929050565b600181811c9082168061098c57607f821691505b6020821081036109ac57634e487b7160e01b600052602260045260246000fd5b50919050565b634e487b7160e01b600052601160045260246000fd5b80820281158282048414176102d3576102d36109b2565b6000826109fc57634e487b7160e01b600052601260045260246000fd5b500490565b818103818111156102d3576102d36109b2565b808201808211156102d3576102d36109b256fea2646970667358221220d4bf3923b0cda9916786f8967c659c962445ba7c2b589d8c1cff6f2ed855c95f64736f6c63430008130033","linkReferences":{}},"methodIdentifiers":{"allowance(address,address)":"dd62ed3e","approve(address,uint256)":"095ea7b3","balanceOf(address)":"70a08231","decimals()":"313ce567","decreaseAllowance(address,uint256)":"a457c2d7","feePercentage()":"a001ecdd","increaseAllowance(address,uint256)":"39509351","name()":"06fdde03","owner()":"8da5cb5b","renounceOwnership()":"715018a6","symbol()":"95d89b41","totalSupply()":"18160ddd","transfer(address,uint256)":"a9059cbb","transferFrom(address,address,uint256)":"23b872dd","transferOwnership(address)":"f2fde38b"},"id":8}